{
  "_format": "hh3-artifact-1",
  "contractName": "EvidenceStorage",
  "sourceName": "contracts/EvidenceStorage.sol",
  "abi": [
    {
      "anonymous": false,
      "inputs": [
        {
          "indexed": false,
          "internalType": "string",
          "name": "evidenceId",
          "type": "string"
        },
        {
          "indexed": false,
          "internalType": "string",
          "name": "evidenceHash",
          "type": "string"
        },
        {
          "indexed": false,
          "internalType": "uint256",
          "name": "timestamp",
          "type": "uint256"
        },
        {
          "indexed": false,
          "internalType": "address",
          "name": "officerAddress",
          "type": "address"
        }
      ],
      "name": "EvidenceStored",
      "type": "event"
    },
    {
      "inputs": [
        {
          "internalType": "string",
          "name": "_evidenceId",
          "type": "string"
        },
        {
          "internalType": "string",
          "name": "_evidenceHash",
          "type": "string"
        }
      ],
      "name": "createEvidence",
      "outputs": [],
      "stateMutability": "nonpayable",
      "type": "function"
    },
    {
      "inputs": [
        {
          "internalType": "string",
          "name": "",
          "type": "string"
        }
      ],
      "name": "evidenceExists",
      "outputs": [
        {
          "internalType": "bool",
          "name": "",
          "type": "bool"
        }
      ],
      "stateMutability": "view",
      "type": "function"
    },
    {
      "inputs": [
        {
          "internalType": "string",
          "name": "",
          "type": "string"
        }
      ],
      "name": "evidenceRecords",
      "outputs": [
        {
          "internalType": "string",
          "name": "evidenceId",
          "type": "string"
        },
        {
          "internalType": "string",
          "name": "evidenceHash",
          "type": "string"
        },
        {
          "internalType": "uint256",
          "name": "timestamp",
          "type": "uint256"
        },
        {
          "internalType": "address",
          "name": "officerAddress",
          "type": "address"
        }
      ],
      "stateMutability": "view",
      "type": "function"
    },
    {
      "inputs": [
        {
          "internalType": "string",
          "name": "_evidenceId",
          "type": "string"
        }
      ],
      "name": "getEvidence",
      "outputs": [
        {
          "internalType": "string",
          "name": "",
          "type": "string"
        },
        {
          "internalType": "string",
          "name": "",
          "type": "string"
        },
        {
          "internalType": "uint256",
          "name": "",
          "type": "uint256"
        },
        {
          "internalType": "address",
          "name": "",
          "type": "address"
        }
      ],
      "stateMutability": "view",
      "type": "function"
    },
    {
      "inputs": [
        {
          "internalType": "string",
          "name": "_evidenceId",
          "type": "string"
        },
        {
          "internalType": "string",
          "name": "_hashToVerify",
          "type": "string"
        }
      ],
      "name": "verifyEvidence",
      "outputs": [
        {
          "internalType": "bool",
          "name": "",
          "type": "bool"
        }
      ],
      "stateMutability": "view",
      "type": "function"
    }
  ],
  "bytecode": "0x608060405234801561001057600080fd5b506110eb806100206000396000f3fe608060405234801561001057600080fd5b50600436106100575760003560e01c806339ed370e1461005c5780633eec74c11461008f578063a4c04774146100bf578063b16c6ee7146100db578063beee83371461010e575b600080fd5b61007660048036038101906100719190610a89565b61013e565b6040516100869493929190610bab565b60405180910390f35b6100a960048036038101906100a49190610a89565b6102b4565b6040516100b69190610c19565b60405180910390f35b6100d960048036038101906100d49190610c34565b6102ea565b005b6100f560048036038101906100f09190610a89565b6104a2565b6040516101059493929190610bab565b60405180910390f35b61012860048036038101906101239190610c34565b6106e7565b6040516101359190610c19565b60405180910390f35b60008180516020810182018051848252602083016020850120818352809550505050505060009150905080600001805461017790610cdb565b80601f01602080910402602001604051908101604052809291908181526020018280546101a390610cdb565b80156101f05780601f106101c5576101008083540402835291602001916101f0565b820191906000526020600020905b8154815290600101906020018083116101d357829003601f168201915b50505050509080600101805461020590610cdb565b80601f016020809104026020016040519081016040528092919081815260200182805461023190610cdb565b801561027e5780601f106102535761010080835404028352916020019161027e565b820191906000526020600020905b81548152906001019060200180831161026157829003601f168201915b5050505050908060020154908060030160009054906101000a900473ffffffffffffffffffffffffffffffffffffffff16905084565b6001818051602081018201805184825260208301602085012081835280955050505050506000915054906101000a900460ff1681565b6001826040516102fa9190610d48565b908152602001604051809103902060009054906101000a900460ff1615610356576040517f08c379a000000000000000000000000000000000000000000000000000000000815260040161034d90610dab565b60405180910390fd5b60405180608001604052808381526020018281526020014281526020013373ffffffffffffffffffffffffffffffffffffffff1681525060008360405161039d9190610d48565b908152602001604051809103902060008201518160000190816103c09190610f77565b5060208201518160010190816103d69190610f77565b506040820151816002015560608201518160030160006101000a81548173ffffffffffffffffffffffffffffffffffffffff021916908373ffffffffffffffffffffffffffffffffffffffff1602179055509050506001808360405161043c9190610d48565b908152602001604051809103902060006101000a81548160ff0219169083151502179055507f151aa39f7a1c385710b86d5f61876df4cc8962c64fca58c679d62656782d8d98828242336040516104969493929190610bab565b60405180910390a15050565b6060806000806001856040516104b89190610d48565b908152602001604051809103902060009054906101000a900460ff16610513576040517f08c379a000000000000000000000000000000000000000000000000000000000815260040161050a90611095565b60405180910390fd5b600080866040516105249190610d48565b908152602001604051809103902060405180608001604052908160008201805461054d90610cdb565b80601f016020809104026020016040519081016040528092919081815260200182805461057990610cdb565b80156105c65780601f1061059b576101008083540402835291602001916105c6565b820191906000526020600020905b8154815290600101906020018083116105a957829003601f168201915b505050505081526020016001820180546105df90610cdb565b80601f016020809104026020016040519081016040528092919081815260200182805461060b90610cdb565b80156106585780601f1061062d57610100808354040283529160200191610658565b820191906000526020600020905b81548152906001019060200180831161063b57829003601f168201915b50505050508152602001600282015481526020016003820160009054906101000a900473ffffffffffffffffffffffffffffffffffffffff1673ffffffffffffffffffffffffffffffffffffffff1673ffffffffffffffffffffffffffffffffffffffff1681525050905080600001518160200151826040015183606001519450945094509450509193509193565b60006001836040516106f99190610d48565b908152602001604051809103902060009054906101000a900460ff166107225760009050610929565b600080846040516107339190610d48565b908152602001604051809103902060405180608001604052908160008201805461075c90610cdb565b80601f016020809104026020016040519081016040528092919081815260200182805461078890610cdb565b80156107d55780601f106107aa576101008083540402835291602001916107d5565b820191906000526020600020905b8154815290600101906020018083116107b857829003601f168201915b505050505081526020016001820180546107ee90610cdb565b80601f016020809104026020016040519081016040528092919081815260200182805461081a90610cdb565b80156108675780601f1061083c57610100808354040283529160200191610867565b820191906000526020600020905b81548152906001019060200180831161084a57829003601f168201915b50505050508152602001600282015481526020016003820160009054906101000a900473ffffffffffffffffffffffffffffffffffffffff1673ffffffffffffffffffffffffffffffffffffffff1673ffffffffffffffffffffffffffffffffffffffff16815250509050826040516020016108e39190610d48565b60405160208183030381529060405280519060200120816020015160405160200161090e9190610d48565b60405160208183030381529060405280519060200120149150505b92915050565b6000604051905090565b600080fd5b600080fd5b600080fd5b600080fd5b6000601f19601f8301169050919050565b7f4e487b7100000000000000000000000000000000000000000000000000000000600052604160045260246000fd5b6109968261094d565b810181811067ffffffffffffffff821117156109b5576109b461095e565b5b80604052505050565b60006109c861092f565b90506109d4828261098d565b919050565b600067ffffffffffffffff8211156109f4576109f361095e565b5b6109fd8261094d565b9050602081019050919050565b82818337600083830152505050565b6000610a2c610a27846109d9565b6109be565b905082815260208101848484011115610a4857610a47610948565b5b610a53848285610a0a565b509392505050565b600082601f830112610a7057610a6f610943565b5b8135610a80848260208601610a19565b91505092915050565b600060208284031215610a9f57610a9e610939565b5b600082013567ffffffffffffffff811115610abd57610abc61093e565b5b610ac984828501610a5b565b91505092915050565b600081519050919050565b600082825260208201905092915050565b60005b83811015610b0c578082015181840152602081019050610af1565b60008484015250505050565b6000610b2382610ad2565b610b2d8185610add565b9350610b3d818560208601610aee565b610b468161094d565b840191505092915050565b6000819050919050565b610b6481610b51565b82525050565b600073ffffffffffffffffffffffffffffffffffffffff82169050919050565b6000610b9582610b6a565b9050919050565b610ba581610b8a565b82525050565b60006080820190508181036000830152610bc58187610b18565b90508181036020830152610bd98186610b18565b9050610be86040830185610b5b565b610bf56060830184610b9c565b95945050505050565b60008115159050919050565b610c1381610bfe565b82525050565b6000602082019050610c2e6000830184610c0a565b92915050565b60008060408385031215610c4b57610c4a610939565b5b600083013567ffffffffffffffff811115610c6957610c6861093e565b5b610c7585828601610a5b565b925050602083013567ffffffffffffffff811115610c9657610c9561093e565b5b610ca285828601610a5b565b9150509250929050565b7f4e487b7100000000000000000000000000000000000000000000000000000000600052602260045260246000fd5b60006002820490506001821680610cf357607f821691505b602082108103610d0657610d05610cac565b5b50919050565b600081905092915050565b6000610d2282610ad2565b610d2c8185610d0c565b9350610d3c818560208601610aee565b80840191505092915050565b6000610d548284610d17565b915081905092915050565b7f45766964656e636520616c726561647920657869737473000000000000000000600082015250565b6000610d95601783610add565b9150610da082610d5f565b602082019050919050565b60006020820190508181036000830152610dc481610d88565b9050919050565b60008190508160005260206000209050919050565b60006020601f8301049050919050565b600082821b905092915050565b600060088302610e2d7fffffffffffffffffffffffffffffffffffffffffffffffffffffffffffffffff82610df0565b610e378683610df0565b95508019841693508086168417925050509392505050565b6000819050919050565b6000610e74610e6f610e6a84610b51565b610e4f565b610b51565b9050919050565b6000819050919050565b610e8e83610e59565b610ea2610e9a82610e7b565b848454610dfd565b825550505050565b600090565b610eb7610eaa565b610ec2818484610e85565b505050565b5b81811015610ee657610edb600082610eaf565b600181019050610ec8565b5050565b601f821115610f2b57610efc81610dcb565b610f0584610de0565b81016020851015610f14578190505b610f28610f2085610de0565b830182610ec7565b50505b505050565b600082821c905092915050565b6000610f4e60001984600802610f30565b1980831691505092915050565b6000610f678383610f3d565b9150826002028217905092915050565b610f8082610ad2565b67ffffffffffffffff811115610f9957610f9861095e565b5b610fa38254610cdb565b610fae828285610eea565b600060209050601f831160018114610fe15760008415610fcf578287015190505b610fd98582610f5b565b865550611041565b601f198416610fef86610dcb565b60005b8281101561101757848901518255600182019150602085019450602081019050610ff2565b868310156110345784890151611030601f891682610f3d565b8355505b6001600288020188555050505b505050505050565b7f45766964656e636520646f6573206e6f74206578697374000000000000000000600082015250565b600061107f601783610add565b915061108a82611049565b602082019050919050565b600060208201905081810360008301526110ae81611072565b905091905056fea2646970667358221220cc8ea6fdbfbd32f574314f5b89dbceef1ddeed1ee0067da60dc68978ae63ae2d64736f6c63430008130033",
  "linkReferences": {},
  "deployedLinkReferences": {},
  "immutableReferences": {},
  "inputSourceName": "project/contracts/EvidenceStorage.sol",
  "buildInfoId": "solc-0_8_19-bb2b928f2fe766d71139475ef8474e07fc1ab238"
}